:020000020000FC
:020000003CC5FD
:02000C0012C61A
:02004000E6C612
:02003400FBC609
:0200240039C7DA
:100A000077777744776B776D775C773D773F77645F
:100A1000777F777C44774444446B446D445C443D29
:100A2000443F4464447F447C6B776B446B6B6B6DD9
:100A30006B5C6B3D6B3F6B646B7F6B7C6D776D4468
:100A40006D6B6D6D6D5C6D3D6D3F6D646D7F6D7C2F
:100A50005C775C445C6B5C6D5C5C5C3D5C3F5C64E7
:100A60005C7F5C7C3D773D443D6B3D6D3D5C3D3D39
:100A70003D3F3D643D7F3D7C00000FEF0DBF08E032
:100A80000EBFE0E0FAE064916BB90FE005B900E356
:100A900004B92D980FEF07B90FEF08B90FEF0AB996
:100AA00000E00BB900E80093610004E000936100EE
:100AB00001E0009368000FE000936B000E94FA05CC
:100AC0000E9402060E940F06789455244424332481
:100AD00071E02227332741E051E081E090E00E945D
:100AE00076050E9492050E94EA05F9CF713031F037
:100AF000723049F0743061F0783079F0409A419862
:100B00004298439808954098419A4298439808958E
:100B100040984198429A4398089540984198429845
:100B2000439A0895713031F0723021F0743051F1F0
:100B3000783041F1803089F0813079F0823079F07D
:100B4000843091F0883081F0803181F0803299F0EA
:100B5000803489F0803889F00895632F089531FC3E
:100B60006CE331FE632F0895652F089531FC6CE32B
:100B700031FE652F0895652D089531FC6CE331FE3B
:100B8000652D0895803089F0813089F0823069F0D8
:100B9000843091F0883091F0803171F0803299F09A
:100BA000803499F0803879F00895622F089531FCEF
:100BB0006CE331FE622F0895642F089531FC6CE3DD
:100BC00031FE642F0895642D089531FC6CE331FEED
:100BD000642D08951BB117FBFAE0E0E0062F060F25
:100BE000E00F049171FDE39573FDE395049107F91E
:100BF0000BB9089503E005BD0CEE06BD01E00093BE
:100C00006E00089503E0009381000EE100938400DC
:100C10000BE10093850001E000936F00089507E069
:100C20000093B1000EE90093B20001E00093700060
:100C300008950F930FB70F93189B0C942A06199BD6
:100C40000C9445061A9B0C9483061B9B0C94AB06D4
:100C50000C9403070E94690780FD90E081FD90E0FD
:100C600082FD90E283FD94E084FD94E082FD90E2B9
:100C700085FD90E086FD90E287FD90E2803019F4DA
:100C800094E00C945A060C945A0680FD92E081FD83
:100C900090E082FD98E083FD90E184FD94E085FD85
:100CA00090E486FD90E887FD90E2803019F491E0B1
:100CB0000C945A06892F0C945D06803091F0813097
:100CC00081F0823071F0843091F0883081F0803191
:100CD00071F0803291F0803481F0803871F00C94A2
:100CE0000307449A45982C982D980C940307449830
:100CF000459A2C982D980C940307449845982C9A63
:100D00002D980C94030780FD239580FD0C941C07FF
:100D100081FD339581FD0C94200783FD439583FD70
:100D20000C942B0784FD0C94420786FD04C087FDBC
:100D300009C00C940307042D0B3319F043940C9451
:100D400003074424052D073119F053940C9403072D
:100D500044240C94030780FD0C94BD0681FD0C9483
:100D6000C50683FD0C94CD0684FD0C94E90686FD32
:100D700038C087FD3EC00C940307203019F02A9537
:100D80000C9403072BE30C94C506303019F03A9508
:100D90000C94030737E10C94CD06413019F04A95C5
:100DA0000C940307533079F0513079F0523069F0E8
:100DB000543059F0563049F0583039F0593029F054
:100DC0005B3019F004C04CE104C04FE102C04EE1B9
:100DD00000C0513019F05A950C9403075CE00C9454
:100DE0000307042D003019F04A940C9403070BE319
:100DF000502E052D003019F05A940C94030707E18A
:100E0000502E0C9403070F910FBF0F9118950F935D
:100E10000FB70F930E94FA05771F7F70703011F49F
:100E200071E000C00F910FBF0F9118950F930FB78E
:100E30000F930E94020623952C3358F022273395F6
:100E4000383138F0332743950E945F074C3108F062
:100E500002C00C944807523049F0543059F05630D3
:100E600049F0593039F05B3029F008C04D3180F03D
:100E700041E008C04F3160F041E004C0403240F032
:100E800041E000C053955D3018F05C3051E000C087
:100E90000F910FBF0F9118950F930FB70F930E94EB
:100EA0000F0633942394022D063028F022240BB130
:100EB00010E801270BB90F910FBF0F911895351549
:100EC0000FB701FD089524150FB701FD08952D9A60
:100ED00008952D9B08952D98089535150FB701FF9E
:0E0EE000089524150FB701FF08952D98089569
:00000001FF
