:020000020000FC
:020000003BC5FE
:02000C00CBC562
:0200400018C6E0
:100A000077777744776B776D775C773D773F77645F
:100A1000777F777C44774444446B446D445C443D29
:100A2000443F4464447F447C6B776B446B6B6B6DD9
:100A30006B5C6B3D6B3F6B646B7F6B7C6D776D4468
:100A40006D6B6D6D6D5C6D3D6D3F6D646D7F6D7C2F
:100A50005C775C445C6B5C6D5C5C5C3D5C3F5C64E7
:100A60005C7F5C7C3D773D443D6B3D6D3D5C3D3D39
:100A70003D3F3D643D7F3D7C0FEF0DBF08E00EBF65
:100A8000E0E0FAE064916BB90FE005B900E304B966
:100A90002D980FEF07B900E008B90FEF0AB90FEF73
:100AA0000BB900E80093610004E00093610001E0ED
:100AB000009368000FE000936B000E94CA057894D1
:100AC00071E081E091E021E032E043E054E00E94F7
:100AD0006C050E948805FBCF713031F0723049F00F
:100AE000743061F0783079F0409A41984298439898
:100AF00008954098419A42984398089540984198A3
:100B0000429A43980895409841984298439A08958C
:100B1000713031F0723021F07430B9F07830A9F0D2
:100B2000803089F0813079F0823069F0843061F072
:100B3000883051F0803141F0803229F0803419F052
:100B4000803809F00895632F652F803089F0813057
:100B500079F0823069F0843061F0883051F0803172
:100B600041F0803229F0803419F0803809F008957E
:100B7000622F642F1BB117FBFAE0E0E0062F060F8F
:100B8000E00F049171FDE39573FDE395049107F97E
:100B90000BB9089503E005BD0CEE06BD01E000931E
:100BA0006E0008950F930FB70F93189B0C94DD05FB
:100BB000199B0C94F6050C94350680FD90E081FDA0
:100BC00090E082FD90E283FD94E084FD94E082FD5C
:100BD00090E285FD90E086FD90E287FD90E2803016
:100BE00019F494E00C940B060C940B0680FD92E033
:100BF00081FD90E082FD98E083FD90E184FD94E02A
:100C000085FD90E486FD90E887FD90E2803019F440
:100C100091E00C940B06892F0C940E06803091F015
:100C2000813011F1823001F1843091F08830E1F0AF
:100C30008031D1F0803291F08034B1F08038A1F071
:100C40000C943506449A45982C982D980C943506AA
:100C50004498459A2C982D980C94350644984598BC
:100C60002C9A2D980C9435062D9A0F910FBF0F9149
:100C700018950F930FB70F930E94CA05771F7F70C7
:100C8000703011F471E000C00F910FBF0F911895F3
:00000001FF
