:020000020000FC
:020000003BC5FE
:02000C00C7C566
:0200400014C6E4
:0200340029C6DB
:0200240065C6AF
:100A000077777744776B776D775C773D773F77645F
:100A1000777F777C44774444446B446D445C443D29
:100A2000443F4464447F447C6B776B446B6B6B6DD9
:100A30006B5C6B3D6B3F6B646B7F6B7C6D776D4468
:100A40006D6B6D6D6D5C6D3D6D3F6D646D7F6D7C2F
:100A50005C775C445C6B5C6D5C5C5C3D5C3F5C64E7
:100A60005C7F5C7C3D773D443D6B3D6D3D5C3D3D39
:100A70003D3F3D643D7F3D7C0FEF0DBF08E00EBF65
:100A8000E0E0FAE064916BB90FE005B900E304B966
:100A90002D980FEF07B900E008B90FEF0AB90FEF73
:100AA0000BB900E80093610004E00093610001E0ED
:100AB000009368000FE100936B000E94AF050E9455
:100AC000B7050E94C4057894222471E022273327B9
:100AD00041E051E081E00E9472050E9485050E947C
:100AE0009F05F9CF08B1007308B9713031F0723049
:100AF00031F0743031F0783031F0409A0895419AF5
:100B00000895429A0895439A0895713031F07230F1
:100B100021F0743059F0783049F080FD632F81FD69
:100B2000632F82FD652F83FD652F089580FD622F61
:100B300081FD622F82FD642F83FD642F08951BB118
:100B400017FBFAE0E0E0062F060FE00F049171FDBD
:100B5000E39573FDE395049107F90BB9089503E05C
:100B600005BD0CEE06BD01E000936E00089503E0A4
:100B7000009381000EE9009384000FEF009385003D
:100B800001E000936F00089507E00093B1000EE9C3
:100B90000093B20001E00093700008950F930FB727
:100BA0000F93189B0C94D905199B0C94F2050C9487
:100BB000310680FD90E081FD90E082FD90E283FDB2
:100BC00094E084FD94E082FD90E285FD90E086FD56
:100BD00090E287FD90E2803019F494E00C940706CF
:100BE0000C94070680FD92E081FD90E082FD98E084
:100BF00083FD90E184FD94E085FD90E486FD90E81E
:100C000087FD90E2803019F491E00C940706892F5B
:100C10000C940A06803091F0813011F1823001F19C
:100C2000843091F08830E1F08031D1F0803291F061
:100C30008034B1F08038A1F00C943106449A459884
:100C40002C982D980C9431064498459A2C982D9800
:100C50000C943106449845982C9A2D980C943106A2
:100C60002D9A0F910FBF0F9118950F930FB70F93F8
:100C70000E94AF05771F7F70703011F471E000C0E3
:100C80000F910FBF0F9118950F930FB70F930E94FD
:100C9000B70523952C3348F022273395383128F0B7
:100CA000332743954C3108F002C00C94740652303F
:100CB00049F0543059F0563049F0593039F05B3032
:100CC00029F008C04D3180F041E008C04F3160F09C
:100CD00041E004C0403240F041E000C053955C3038
:100CE00018F05C3051E000C00F910FBF0F911895C4
:100CF0000F930FB70F930E94C4052394022D063063
:100D000028F022240BB110E801270BB90F910FBF77
:040D10000F91189592
:00000001FF
