:020000020000FC
:020000003BC5FE
:02000C00C5C568
:02004000D2C527
:02003400E7C51E
:0200240025C6EF
:100A000077777744776B776D775C773D773F77645F
:100A1000777F777C44774444446B446D445C443D29
:100A2000443F4464447F447C6B776B446B6B6B6DD9
:100A30006B5C6B3D6B3F6B646B7F6B7C6D776D4468
:100A40006D6B6D6D6D5C6D3D6D3F6D646D7F6D7C2F
:100A50005C775C445C6B5C6D5C5C5C3D5C3F5C64E7
:100A60005C7F5C7C3D773D443D6B3D6D3D5C3D3D39
:100A70003D3F3D643D7F3D7C0FEF0DBF08E00EBF65
:100A8000E0E0FAE064916BB90FE105B900E204B966
:100A90002D980FEF07B900E008B90FEF0AB90FEF73
:100AA0000BB900E80093610004E00093610001E0ED
:100AB000009368000FE100936B000E94AD050E9457
:100AC000B5050E94C2057894222471E022273327BD
:100AD00041E051E081E00E94730508B90E9483055E
:100AE0000E949D05F8CF713031F0723031F07430D2
:100AF00031F0783031F001E0089502E0089504E02B
:100B0000089508E00895713031F0723021F07430AA
:100B100059F0783049F080FD632F81FD632F82FD0D
:100B2000652F83FD652F089581FD622F82FD622F61
:100B300083FD642F84FD642F08951BB117FBFAE039
:100B4000E0E0062F060FE00F049171FDE39573FDC1
:100B5000E395049107F90BB9089503E005BD0BEF88
:100B600006BD01E000936E00089503E0009381004C
:100B70000EE9009384000FEF0093850001E00093DD
:100B80006F00089507E00093B1000EE90093B200F2
:100B900001E00093700008950F930FB70F93189919
:100BA0000C94EB0519990C94ED051A990C94DA053F
:100BB0000C94EF050FB7813001FD82E0823001FD1A
:100BC00084E0843001FD88E0883001FD80E18031DF
:100BD00001FD81E004C00C94EF050C94EF050F912A
:100BE0000FBF0F9118950F930FB70F930E94AD058C
:100BF000771F7F70703011F471E000C00F910FBF4C
:100C00000F9118950F930FB70F930E94B505239579
:100C10002C3348F022273395383128F03327439579
:100C20004C3108F002C00C943406523049F0543074
:100C300059F0563049F0593039F05B3029F008C08E
:100C40004C3190F041E008C04E3170F041E004C0FA
:100C50004F3150F041E000C053955C3018F05C30EB
:100C600051E002C0539500F00F910FBF0F911895FE
:100C70000F930FB70F930E94C2052394022D0630E5
:100C800028F022240BB110E801270BB90F910FBFF8
:040C90000F91189513
:00000001FF
