:020000020000FC
:020000003BC5FE
:02000C00E8C545
:0200400035C6C3
:020034004AC6BA
:0200240086C68E
:100A000077777744776B776D775C773D773F77645F
:100A1000777F777C44774444446B446D445C443D29
:100A2000443F4464447F447C6B776B446B6B6B6DD9
:100A30006B5C6B3D6B3F6B646B7F6B7C6D776D4468
:100A40006D6B6D6D6D5C6D3D6D3F6D646D7F6D7C2F
:100A50005C775C445C6B5C6D5C5C5C3D5C3F5C64E7
:100A60005C7F5C7C3D773D443D6B3D6D3D5C3D3D39
:100A70003D3F3D643D7F3D7C0FEF0DBF08E00EBF65
:100A8000E0E0FAE064916BB90FE005B900E304B966
:100A90002D980FEF07B900E008B90FEF0AB90FEF73
:100AA0000BB900E80093610004E00093610001E0ED
:100AB000009368000FE100936B000E94D0050E9434
:100AC000D8050E94E5057894222471E02227332777
:100AD00041E051E081E00E9472050E948E050E9473
:100AE000C005F9CF713031F0723049F0743061F0E7
:100AF000783079F0409A4198429843980895409808
:100B0000419A42984398089540984198429A439850
:100B10000895409841984298439A0895713031F071
:100B2000723021F07430B9F07830A9F0803089F05B
:100B3000813079F0823069F0843061F0883051F092
:100B4000803141F0803229F0803419F0803809F08A
:100B50000895632F652F803089F0813079F08230DD
:100B600069F0843061F0883051F0803141F080329A
:100B700029F0803419F0803809F00895622F642F2D
:100B80001BB117FBFAE0E0E0062F060FE00F04911F
:100B900071FDE39573FDE395049107F90BB9089591
:100BA00003E005BD0CEE06BD01E000936E00089564
:100BB00003E0009381000EE9009384000FEF00939F
:100BC000850001E000936F00089507E00093B100F5
:100BD0000EE90093B20001E00093700008950F93B6
:100BE0000FB70F93189B0C94FA05199B0C941306DE
:100BF0000C94520680FD90E081FD90E082FD90E231
:100C000083FD94E084FD94E082FD90E285FD90E018
:100C100086FD90E287FD90E2803019F494E00C9418
:100C200028060C94280680FD92E081FD90E082FD6C
:100C300098E083FD90E184FD94E085FD90E486FDDD
:100C400090E887FD90E2803019F491E00C9428063A
:100C5000892F0C942B06803091F0813011F1823075
:100C600001F1843091F08830E1F08031D1F08032B0
:100C700091F08034B1F08038A1F00C945206449A7F
:100C800045982C982D980C9452064498459A2C9887
:100C90002D980C945206449845982C9A2D980C94B3
:100CA00052062D9A0F910FBF0F9118950F930FB702
:100CB0000F930E94D005771F7F70703011F471E0A0
:100CC00000C00F910FBF0F9118950F930FB70F939F
:100CD0000E94D80523952C3348F0222733953831CC
:100CE00028F0332743954C3108F002C00C94950648
:100CF000523049F0543059F0563049F0593039F0FB
:100D00005B3029F008C04D3180F041E008C04F3120
:100D100060F041E004C0403240F041E000C0539533
:100D20005C3018F05C3051E000C00F910FBF0F91A4
:100D300018950F930FB70F930E94E5052394022D8A
:100D4000063028F022240BB110E801270BB90F91CF
:060D50000FBF0F91189582
:00000001FF
