:020000020000FC
:020000003CC5FD
:02000C0002C62A
:02004000A5C653
:02003400BAC64A
:02002400F6C61E
:100A000077777744776B776D775C773D773F77645F
:100A1000777F777C44774444446B446D445C443D29
:100A2000443F4464447F447C6B776B446B6B6B6DD9
:100A30006B5C6B3D6B3F6B646B7F6B7C6D776D4468
:100A40006D6B6D6D6D5C6D3D6D3F6D646D7F6D7C2F
:100A50005C775C445C6B5C6D5C5C5C3D5C3F5C64E7
:100A60005C7F5C7C3D773D443D6B3D6D3D5C3D3D39
:100A70003D3F3D643D7F3D7C00000FEF0DBF08E032
:100A80000EBFE0E0FAE064916BB90FE005B900E356
:100A900004B92D980FEF07B90FEF08B90FEF0AB996
:100AA00000E00BB900E80093610004E000936100EE
:100AB00001E0009368000FE000936B000E94EA05DC
:100AC0000E94F2050E94FF057894332471E081E0D2
:100AD00091E021E032E043E054E00E9474050E947E
:100AE00090050E94DA05F9CF713031F0723049F08B
:100AF000743061F0783079F0409A41984298439888
:100B000008954098419A4298439808954098419892
:100B1000429A43980895409841984298439A08957C
:100B2000713031F0723021F0743019F1783009F100
:100B3000803089F0813079F0823079F0843091F022
:100B4000883081F0803181F0803229F0803419F0D2
:100B5000803809F00895632F089531FC6CE331FE6D
:100B6000632F0895652F089531FC6CE331FE652FE6
:100B70000895803089F0813089F0823069F08430C6
:100B800091F0883091F0803171F0803229F080341A
:100B900019F0803809F00895622F089531FC6CE354
:100BA00031FE622F0895642F089531FC6CE331FE0D
:100BB000642F08951BB117FBFAE0E0E0062F060F43
:100BC000E00F049171FDE39573FDE395049107F93E
:100BD0000BB9089503E005BD0CEE06BD01E00093DE
:100BE0006E00089503E0009381000EE100938400FD
:100BF0000BE10093850001E000936F00089507E08A
:100C00000093B1000EE90093B20001E00093700080
:100C100008950F930FB70F93189B0C941A06199B06
:100C20000C9433061A9B0C9472061B9B0C9484063E
:100C30000C94C20680FD90E081FD90E082FD90E280
:100C400083FD94E084FD94E082FD90E285FD90E0D8
:100C500086FD90E287FD90E2803019F494E00C94D8
:100C600048060C94480680FD92E081FD90E082FDEC
:100C700098E083FD90E184FD94E085FD90E486FD9D
:100C800090E887FD90E2803019F491E00C944806DA
:100C9000892F0C944B06803091F0813011F1823015
:100CA00001F1843091F08830E1F08031D1F0803270
:100CB00091F08034B1F08038A1F00C94C206449ACF
:100CC00045982C982D980C94C2064498459A2C98D7
:100CD0002D980C94C206449845982C9A2D980C9403
:100CE000C2062D9A80FD239580FD0C94DB0681FDC4
:100CF000339581FD0C94DF0683FD439583FD0C94B1
:100D0000E80684FD0C94FF0680FD0C94900681FD9E
:100D10000C94980683FD0C94A00684FD0C94BC06EC
:100D2000203019F02A950C94C2062BE30C949806F7
:100D3000303019F03A950C94C20637E10C94A006B5
:100D4000413019F04A950C94C206533079F0513075
:100D500079F0523069F0543059F0563049F058303B
:100D600039F0593029F05B3019F004C04CE104C06F
:100D70004FE102C04EE100C0513010F05A9502C060
:100D80005CE000C00F910FBF0F9118950F930FB744
:100D90000F930E94EA05771F7F70703011F471E0A5
:100DA00000C00F910FBF0F9118950F930FB70F93BE
:100DB0000E94F20523952C3348F0222733953831D1
:100DC00028F0332743954C3108F002C00C940507F6
:100DD000523049F0543059F0563049F0593039F01A
:100DE0005B3029F008C04D3180F041E008C04F3140
:100DF00060F041E004C0403240F041E000C0539553
:100E00005D3018F05C3051E000C00F910FBF0F91C2
:100E100018950F930FB70F930E94FF0533942394F7
:100E2000022D063028F022240BB110E801270BB95F
:080E30000F910FBF0F911895FF
:00000001FF
