:020000020000FC
:020000003CC5FD
:02000C0013C619
:02004000E8C610
:02003400FDC607
:020024003AC7D9
:100A000077777744776B776D775C773D773F77645F
:100A1000777F777C44774444446B446D445C443D29
:100A2000443F4464447F447C6B776B446B6B6B6DD9
:100A30006B5C6B3D6B3F6B646B7F6B7C6D776D4468
:100A40006D6B6D6D6D5C6D3D6D3F6D646D7F6D7C2F
:100A50005C775C445C6B5C6D5C5C5C3D5C3F5C64E7
:100A60005C7F5C7C3D773D443D6B3D6D3D5C3D3D39
:100A70003D3F3D643D7F3D7C00000FEF0DBF08E032
:100A80000EBFE0E0FAE064916BB90FE005B900E356
:100A900004B92D980FEF07B900E108B90FEF0AB9B3
:100AA00000E00BB900E80093610004E000936100EE
:100AB00001E0009368000FE000936B000E94FB05CB
:100AC0000E9403060E94100678945524442433247F
:100AD00071E02227332741E051E081E090E00E945D
:100AE00076050E9492050E94EA05F9CF713031F037
:100AF000723049F0743061F0783079F0409A419862
:100B00004298439808954098419A4298439808958E
:100B100040984198429A4398089540984198429845
:100B2000439A0895713031F0723021F0743051F1F0
:100B3000783041F1803089F0813079F0823079F07D
:100B4000843091F0883081F0803181F0803299F0EA
:100B5000803489F0803889F00895632F089530FC3F
:100B60006CE330FE632F0895652F089530FC6CE32D
:100B700030FE652F0895652D089530FC6CE330FE3E
:100B8000652D0895803089F0813089F0823069F0D8
:100B9000843091F0883091F0803171F0803299F09A
:100BA000803499F0803879F00895622F089530FCF0
:100BB0006CE330FE622F0895642F089530FC6CE3DF
:100BC00030FE642F0895642D089530FC6CE330FEF0
:100BD000642D0895FAE0E0E0062F060FE00F04917F
:100BE00071FDE39573FDE39504910BB932FC5F9AB7
:100BF00032FE5F98089503E005BD0CEE06BD01E0EE
:100C000000936E00089505E0009381000EE10093CB
:100C100084000BE10093850001E000936F000895CC
:100C200007E00093B10005E80093B20001E00093F3
:100C3000700008950F930FB70F932D9B0C9423060C
:100C40002D980C940507189B0C943106199B0C9455
:100C50004A061A9B0C9485061B9B0C94AD060C94BB
:100C6000050780FD90E081FD90E082FD90E283FD2C
:100C700094E084FD94E082FD90E285FD90E086FDA5
:100C800090E287FD90E2803019F494E00C945F06C6
:100C90000C945F0680FD92E081FD90E082FD98E07B
:100CA00083FD90E184FD94E085FD90E486FD90E86D
:100CB00087FD90E2803019F491E00C945F06892F53
:100CC0000C946206803091F0813081F0823071F0B6
:100CD000843089F0883079F0803169F0803281F099
:100CE000803471F0803861F00C940507449A45987F
:100CF0002C980C9405074498459A2C980C94050759
:100D0000449845982C9A0C94050780FD239580FD06
:100D10000C941E0781FD339581FD0C94220783FD01
:100D2000439583FD0C942B0784FD0C94420786FDAC
:100D300004C087FD09C00C940507042D0B3319F07E
:100D400043940C9405074424052D073119F053945E
:100D50000C94050744240C94050780FD0C94BF06F1
:100D600081FD0C94C70683FD0C94CF0684FD0C9482
:100D7000EB0686FD38C087FD3EC00C940507203089
:100D800019F02A950C9405072BE30C94C706303014
:100D900019F03A950C94050737E10C94CF064130D1
:100DA00019F04A950C940507533079F0513079F0D9
:100DB000523069F0543059F0563049F0583039F01B
:100DC000593029F05B3019F004C04CE104C04FE108
:100DD00002C04EE100C0513019F05A950C9405073D
:100DE0005CE00C940507042D003019F04A940C9433
:100DF00005070BE3402E052D003019F05A940C9492
:100E0000050707E1502E0C9405070F910FBF0F91B6
:100E100018950F930FB70F930E94FB05771F7F70F4
:100E2000703011F471E000C00F910FBF0F91189551
:100E30000F930FB70F930E94030623952C3348F0AE
:100E400022273395383128F0332743954C3108F069
:100E500002C00C944707523049F0543059F05630D4
:100E600049F0593039F05B3029F008C04D3178F045
:100E700041E008C04F3158F041E004C0403238F042
:100E800041E000C053955D3010F051E000C00E9479
:100E900057070F910FBF0F9118950F930FB70F932F
:100EA0000E94100633940F910FBF0F9118952415CF
:0E0EB00009F00895351511F42D9A089508954E
:00000001FF
