:020000020000FC
:0200000004C139
:02000C0048C1E9
:0200400035C1C8
:020034004BC1BE
:0200240082C197
:10020000E721CB6B2D6EEE23EF2F0FEF0DBF08E034
:100210000EBFE0E0F2E074917BB90FE105B900E2B6
:1002200004B92D980FEF07B900E008B90FEF0AB92C
:100230000FEF0BB900E80093610008E00093610044
:1002400001E0009368000FE100936B000E94300111
:100250000E9438010E9445017894662781E0FFCF13
:1002600003E005BD01E006BD01E000936E000895C6
:1002700003E0009381000EE1009384000BE1009302
:10028000850001E000936F00089507E00093B1003E
:100290000EE90093B20001E00093700008950F93FF
:1002A0000FB70F930F910FBF0F9118950F930FB7C3
:1002B0000F930E94300188B9881F8F70803011F42D
:1002C00081E000C00F910FBF0F9118950F930FB7EA
:1002D0000F930E94380123952C3318F12227339570
:1002E0003831F8F0332700C04395523049F054308C
:1002F00059F0563049F0593039F05B3029F008C0D8
:100300004C3178F041E008C04F3158F041E004C072
:10031000403238F041E000C053955C3010F051E0BD
:1003200000C00F910FBF0F9118950F930FB70F9348
:100330000E9445016395663028F066270BB110E8EE
:0C03400001270BB90F910FBF0F9118950A
:00000001FF
