:020000020000FC
:0200000004C139
:02000C0045C1EC
:0200400032C1CB
:0200340055C1B4
:020024008AC18F
:10020000E721CB6B2D6EEE23EF2F0FEF0DBF08E034
:100210000EBFE0E0F2E074917BB90FE105B900E2B6
:1002200004B90FEF07B90FEF0AB900E800936100B6
:1002300004E00093610001E0009368000FE1009387
:100240006B000E942B010E9435010E9442017894AC
:10025000662781E0FFCF03E0009325000BEF0093BA
:10026000260001E000936E00089503E000938100F2
:100270000EE1009384000BE10093850001E0009300
:100280006F00089507E00093B1000EE90093B200FB
:1002900001E00093700008950F930FB70F930F9133
:1002A0000FBF0F9118950F930FB70F93881F8F7083
:1002B000803091F481E010C001E00BB9813061F031
:1002C00002E00BB9823041F004E00BB9843021F038
:1002D00008E00BB9883001F00F910FBF0F9118950E
:1002E0000F930FB70F9323952C3318F122273395D3
:1002F0003831F8F0332700C04395523049F054307C
:1003000059F0563049F0593039F05B3029F008C0C7
:100310004C3178F041E008C04F3158F041E004C062
:10032000403238F041E000C053955C3010F051E0AD
:1003300000C00F910FBF0F9118950F930FB70F9338
:100340006395663028F066270BB110E801270BB9DA
:080350000F910FBF0F911895EA
:00000001FF
