:020000020000FC
:0200000020C01E
:100040003FC00FEF0DBF08E00EBF0FEF07B900E094
:1000500008B90FEF0AB90FEF0BB900E80093610080
:1000600004E0009361000E945800789471E062E11E
:100070006BB90E943C00FDCF713031F0723049F015
:10008000743061F0783079F0409A41984298439802
:1000900008954098419A429843980895409841980D
:1000A000429A43980895409841984298439A0895F7
:1000B00003E005BD0CEE06BD01E000936E0008955F
:1000C0000F930FB70F930E945800771F7F70703007
:0E00D00011F471E000C00F910FBF0F91189551
:00000001FF
