:020000020000FC
:0200000020C01E
:02000C0066C0CC
:10004000B3C00FEF0DBF08E00EBF0FE005B900E32E
:1000500004B92D980FEF07B900E008B90FEF0AB9FE
:100060000FEF0BB900E80093610004E0009361001A
:1000700001E0009368000FE000936B000E946500B0
:10008000789471E081E091E062E16BB90E944900EF
:10009000FDCF713031F0723049F0743061F078305A
:1000A00079F0409A41984298439808954098419A2F
:1000B00042984398089540984198429A43980895E9
:1000C000409841984298439A089503E005BD0CEE8C
:1000D00006BD01E000936E0008950F930FB70F93D4
:1000E000189B0C947800199B0C9491000C94D000F0
:1000F00080FD90E081FD90E082FD90E283FD94E040
:1001000084FD94E082FD90E285FD90E086FD90E222
:1001100087FD90E2803019F494E00C94A6000C94D2
:10012000A60080FD92E081FD90E082FD98E083FDD5
:1001300090E184FD94E085FD90E486FD90E887FDE4
:1001400090E2803019F491E00C94A600892F0C9471
:10015000A900803091F0813011F1823001F18430BA
:1001600091F08830E1F08031D1F0803291F080342C
:10017000B1F08038A1F00C94D000449A45982C98A6
:100180002D980C94D0004498459A2C982D980C9456
:10019000D000449845982C9A2D980C94D0002D9A14
:1001A0000F910FBF0F9118950F930FB70F930E94E8
:1001B0006500771F7F70703011F471E000C00F91FF
:0601C0000FBF0F9118951E
:00000001FF
