:020000020000FC
:0200000004C535
:02000C006BC5C2
:0200400058C5A1
:020034006DC598
:02002400E7C52E
:100A000077446B6D5C3D3F647F7C0FEF0DBF08E06A
:100A10000EBFE0E0FAE054915BB90FE105B900E2E6
:100A200004B92D980FEF07B900E008B90FEF0AB924
:100A30000FEF0BB900E80093610004E00093610040
:100A400001E0009368000FE100936B000E945305E2
:100A50000E945B050E9468057894442761E00E942B
:100A60003205FDCF613031F0623041F0643051F039
:100A7000683061F001E008B9552D0CC002E008B9FA
:100A8000542D08C004E008B9532D04C008E008B98B
:100A9000522D00C01BB117FBFAE0E0E0E50F049116
:100AA00007F90BB9089503E005BD0BEF06BD01E0A2
:100AB00000936E00089503E0009381000EE9009317
:100AC00084000FEF0093850001E000936F0008950C
:100AD00007E00093B1000EE90093B20001E000933B
:100AE000700008950F930FB70F930F910FBF0F91E1
:100AF00018950F930FB70F930E945305661F6F70E1
:100B0000603011F461E000C00F910FBF0F91189594
:100B10000F930FB70F930E945B05022D0395202EB4
:100B20000A3030F12224032D0395302E063000F1D7
:100B30003324042D0395402E0A30D0F04424052D93
:100B40000395502E0230A0F0042D043088F0442488
:100B50005524062D0395602E0A3050F06624072D8B
:100B60000395702E023020F0062D083008F002C0E8
:100B70000C94F605062D200F0AE0079D002D200F8E
:100B8000082D300F0AE0099D002D300F323049F05A
:100B9000343069F0363059F0393049F03B3039F0B3
:100BA0000CC02C3118F101E0602E77240CC02E31DE
:100BB000E8F001E0602E772406C02F31B8F001E0A4
:100BC000602E772400C033953C3030F03C3070F01C
:100BD00001E0802E99240AC0082D0395802E0A304A
:100BE00028F08824092D0395902E00F00F910FBF57
:100BF0000F9118950F930FB70F930E9468054395B7
:100C0000463028F044270BB110E801270BB90F91AB
:060C10000FBF0F911895C3
:00000001FF
