:020000020000FC
:020000003BC5FE
:02000C00C1C56C
:02004000D7C522
:02003400ECC519
:0200240028C6EC
:100A000077777744776B776D775C773D773F77645F
:100A1000777F777C44774444446B446D445C443D29
:100A2000443F4464447F447C6B776B446B6B6B6DD9
:100A30006B5C6B3D6B3F6B646B7F6B7C6D776D4468
:100A40006D6B6D6D6D5C6D3D6D3F6D646D7F6D7C2F
:100A50005C775C445C6B5C6D5C5C5C3D5C3F5C64E7
:100A60005C7F5C7C3D773D443D6B3D6D3D5C3D3D39
:100A70003D3F3D643D7F3D7C0FEF0DBF08E00EBF65
:100A8000E0E0FAE064916BB90FE105B900E204B966
:100A90002D980FEF07B900E008B90FEF0AB90FEF73
:100AA0000BB901E0009368000FE100936B000E9416
:100AB000A9050E94B1050E94BE057894222471E028
:100AC0002227332741E051E081E00E946C050E941B
:100AD0007F050E949905F9CF08B1007308B97130FC
:100AE00031F0723031F0743031F0783031F0409ABA
:100AF0000895419A0895429A0895439A089571304D
:100B000031F0723021F0743059F0783049F083FDC3
:100B1000632F82FD632F81FD652F80FD652F089572
:100B200083FD622F82FD622F81FD642F80FD642F83
:100B300008951BB117FBFAE0E0E0062F060FE00F67
:100B4000049171FDE39573FDE395049107F90BB9E9
:100B5000089503E005BD0CEE06BD01E000936E00B4
:100B6000089503E0009381000EE9009384000FEFE5
:100B70000093850001E000936F00089507E0009363
:100B8000B1000EE90093B20001E0009370000895F7
:100B90000F930FB70F930C94CF050C94F4050FB778
:100BA000813001FD82E0823001FD84E0843001FD6E
:100BB00088E0883001FD80E1803101FD81E000C0E6
:100BC00043984498813001FD439A823001FD439A55
:100BD000843001FD449A883001FD449A0C94F40558
:100BE0000C94F4050C94F4050F910FBF0F91189518
:100BF0000F930FB70F930E94A905771F7F70703076
:100C000011F471E000C00F910FBF0F9118950F9371
:100C10000FB70F930E94B10523952C3348F022277C
:100C20003395383128F0332743954C3108F002C012
:100C30000C943706523049F0543059F0563049F090
:100C4000593039F05B3029F008C04D3180F041E077
:100C500008C04F3160F041E004C0403240F041E054
:100C600000C053955C3018F05C3051E000C00F912B
:100C70000FBF0F9118950F930FB70F930E94BE05EA
:100C80002394022D063028F022240BB110E801270E
:0A0C90000BB90F910FBF0F911895DB
:00000001FF
